:02000004080AE8
:1000000000000A0800810A08000006000600050139
:080010000402E50C00000000F1
:04001800AC730A08B3
:1000200009480A4908B5884205D0094A824202D0E7
:10003000121A04F06DF80748074A0021121A04F05A
:1000400075F8064808BD00BF000000208C7E0A0835
:100050004C02002050020020880500208805002066
:1000600070B501F0DDFF0025054E064CA41BA40869
:10007000AC4200D170BD56F8043B98470135F7E714
:10008000547E0A08787E0A0800F00CBD08B500F01E
:10009000E7FABDE8084001F07BBF01F075BA01F056
:1000A00073BA01F079BA0078B0FA80F0400970476D
:1000B000012303707047000013B50446044B1B78FE
:1000C0008DF800303C2302F02FF9204602B010BD1D
:1000D000500200204EF66021014AC0E9001270472C
:1000E000005C260540F20113038101238372002383
:1000F000C0E9033343617047012303727047012352
:100100004372704701238372704738B5046805460F
:100110007CB16368013B63605BB9236820469B68E0
:100120009847A368013BA3601BB923682046DB689E
:100130009847284638BD000030B5044689B00D46C2
:100140006846174901F010FC01F030F8E36883427B
:100150008ABFDB43C01AC018237A13B9636883428D
:1001600018D80622294604A801F086FC04A968468E
:1001700001F0B0FC04A801F0ADFB009A094904A805
:10018000FFF79AFF05A8FFF7C0FF0023237201F0D5
:100190000DF8E060684601F09DFB09B030BD00BF7E
:1001A000C0730A08E9730A0830B5044689B00D46E1
:1001B0006846174901F0D8FB00F0F8FF2369834235
:1001C0008ABFDB43C01AC018637A13B963688342DD
:1001D00018D80622294604A801F04EFC04A9684656
:1001E00001F078FC04A801F075FB009A094904A805
:1001F000FFF762FF05A8FFF788FF0023637200F096
:10020000D5FF2061684601F065FB09B030BD00BF35
:10021000F9730A0823740A0810B504468AB0154910
:1002200002A801F0A1FB00F0C1FF636983428ABF0D
:10023000DB43C01AC018A37A13B96368834213D88A
:100240000D4906A801F090FB069A0C496846FFF795
:1002500033FF01A8FFF759FF0023A37200F0A6FFA8
:10026000606106A801F036FB02A801F033FB0AB07A
:1002700010BD00BF34740A084F740A0863740A087A
:100280007FB5094902A801F06FFB029A0749684649
:10029000FFF712FF01A8FFF738FF02A801F01AFBD1
:1002A00007B05DF804FB00BF75740A089C740A0867
:1002B0000022014B1A7070475002002010687047EE
:1002C00008B50248FFF7DCFF002008BDE802002067
:1002D0001FB50023019303930C23ADF80430044BA6
:1002E0000422029301AB01F017F905B05DF804FB9D
:1002F000BD020A0810B58AB0044601F0C8FD0F4BD4
:1003000002461B680E490093C31702A801F060FD66
:1003100002A906A801F067FB0A4906A801F0FEFB46
:100320000146204601F05FFB06A801F0D3FA02A8BF
:1003300001F0D0FA20460AB010BD00BF080000202E
:1003400094030020A9740A0810B5134C13491448EB
:1003500001F05CFB2378CBB91249114801F0BEFBD8
:1003600011490F4801F0BAFB63788BB90D490C486D
:1003700001F0B4FB0C490A4801F0B0FBA3784BB97B
:1003800008490748BDE8104001F0A8BB0749E4E769
:100390000649ECE70549F4E758020020E0760A0830
:1003A0000003002060750A08B0740A08AE740A08D9
:1003B000F8B51A4D0F464FF07C512C7803F0D6FB60
:1003C000C8B9E4B1013C00E001342C7017E005230A
:1003D00033702878124B042802D83278042A06D9C0
:1003E00001201870F8BD002CF3D0013C13E010433D
:1003F000F7D01878F6E7042CE6D905232B70094EC0
:100400004FF07C513846347803F0B0FB0028EAD036
:10041000042CDCD801343470DBE700BFCE020020AE
:10042000CD020020CF0200200346401A8B4238BF85
:1004300000F1FF307047000038B5174C05462378AF
:10044000BFF35B8FDB070AD42046FFF72CFE30B1E9
:1004500000F0ACFE114B18602046FFF729FE104C4F
:10046000ADB10E4D00F0A2FE2968FFF7DDFF952823
:1004700006D9237883F00103237000F097FE2860EB
:10048000217831B9BDE83840052002F018BC0123BD
:1004900023700121F6E700BFBC020020D00200203B
:1004A0000000002038B5174C05462378BFF35B8F5A
:1004B000DB070AD42046FFF7F6FD30B100F076FEE8
:1004C000114B18602046FFF7F3FD104CB5B10E4DEF
:1004D00000F06CFE2968FFF7A7FF312806D92378C2
:1004E00083F00103237000F061FE2860237833B1AC
:1004F0000121BDE83840062002F0E1BB2570002153
:10050000F7E700BFB8020020C4020020C1020020AB
:10051000F8B50D4D07462C780C4E2CB900F046FE70
:10052000012430602C7009E000F040FE3168024682
:10053000FFF77AFFB84203D201232B702046F8BDA3
:1005400000243260EEE700BFD8020020D402002071
:1005500070B5042002F0CCFB0E4D0446B8B92E78DD
:100560001EB1012E09D0204606E000F01FFE0A4B06
:100570001860012330462B7070BD00F017FE064B4B
:100580001968FFF751FF0928EDD90223F2E700208F
:100590002870F1E7CC020020C802002010B50D4CF5
:1005A00023687BB90C4800F03BFD38B90A4800F0DD
:1005B00050FD0A4B186018B901232360206810BD54
:1005C0000223FAE70028F9D000230348236000F053
:1005D0005BFCF3E7040000205C0200201003002015
:1005E00008B502F0BFFD0D4B002202F05DFC03F0E8
:1005F000ABF878280146A8BF78212829B8BF282160
:10060000AA23283959435023B1FBF3F1BDE8084030
:100610000348C1F1AF0101F037B800BF0000E03F6F
:100620006003002008B502F09DFD0B4B002202F094
:100630003BFC03F089F86428A8BF642020EAE0713D
:10064000AA2064234143B1FBF3F1BDE8084003480D
:10065000C1F1AF0101F018B80000E03F60030020D5
:100660002DE9F04F012085B002F042FB0246B0FABE
:1006700080F0AD4B40091978DFF8B0A281428AF8CA
:10068000000007D01870002A00F01B81A84B1868E2
:10069000FFF7C8FF0020FFF781FF002800F0B880B7
:1006A000A44F3B78002B00F09880A34800F0F4FCA6
:1006B0008346A14800F0D4FCA04C0646A04920681F
:1006C00003F036FA08B1C4F800B0994D9C49286887
:1006D00003F02EFA00B12E60206802F043FD8AA3D9
:1006E000D3E9002302F096FD80465846894602F081
:1006F00039FD87A3D3E9002302F08CFD02460B46A7
:100700004046494602F0D0FB03F066F8206083467D
:10071000286802F027FD7CA3D3E9002302F07AFDCC
:1007200080463046894602F01DFD79A3D3E90023B7
:1007300002F070FD0B4602464946404602F0B4FB0B
:1007400003F04AF89AF800302860002B00F0BE80D1
:100750005846FFF745FF06222168684601F08CF9EC
:100760006946784801F04AF9684601F0B3F8062274
:100770002968684601F080F96946734801F03EF93E
:10078000684601F0A7F8714801F016FA216803F0F5
:10079000EDF9003818BF01206D4D28706D4801F04B
:1007A0000BFA2668314603F0C3F9002800F0918067
:1007B0000123314668486B70FFF7F6FC2B78002B5D
:1007C00000F0898064482168FFF7B6FC6248FFF7B3
:1007D00096FCFFF7B9FD00233B70604D00F0E6FC8E
:1007E0002968FFF721FEB0F57A6F11D301240120AB
:1007F000FFF7D4FE3C7000F0D9FC594A286013780A
:1008000083EA0401117001B12146072002F057FA72
:100810001420FFF77DFE534F0546534E00283FD16D
:100820000A2002F078FA80460B2002F074FA03F0F6
:10083000DDF802F097FC38A3D3E9002302F0EAFCCC
:1008400037A3D3E9002302F00FFE02F0C5FF0446F0
:10085000404603F0CBF802F085FC2FA3D3E9002338
:1008600002F0D8FC2EA3D3E9002302F0FDFD02F034
:10087000B3FF2146FFF79CFDDFF8F0800446344BC0
:10088000002836D0012434489C703C70FFF7C4FC2B
:10089000FFF75AFD98F80030002B08BF2546357049
:1008A000FFF756FE20B10122304B1A70002333703F
:1008B0003878FFF7C1FD307805B0BDE8F04FFFF79D
:1008C000F1BD1E4B1868FFF78BFEE3E6FFF7AAFEAB
:1008D00041E7687072E76B783BB121681E48FFF70B
:1008E00063FC1D48FFF708FC73E71B48FFF707FC94
:1008F000F7E7987038701848FFF704FCFFF724FDFD
:10090000347088F80040CBE7CDCCCCCCCCCCEC3FDD
:100910009A9999999999B93F6666666666660A409A
:100920000000000000FEAF40D9020020E2020020DB
:1009300058030020E30200205C0200205C0300203A
:100940000000204170030020240300204803002001
:100950005802002014030020E8020020DC020020DE
:1009600044030020E4020020E1020020E002002015
:1009700070B5044600258AB0A3689D4220D229465E
:10098000204601F0E8F82C2805F101067CD12B4621
:100990000022214606A801F0E1F806A93B4801F033
:1009A0002DF806A800F096FF3246214606A801F071
:1009B000F7F8374806A901F021F806A800F08AFFE9
:1009C0000025344C3148257001F0F1F86080304842
:1009D00001F0EDF8A08002F0F5F9214601220A208D
:1009E00000F0F4FB02F0EEF902221420A11800F04E
:1009F000EDFB02F0E7F9211D02221E2000F0E6FBCC
:100A00000A22217802A801F012F8234902A801F075
:100A100065F8B4F9021002A801F06FF81E4902A8A7
:100A200001F05CF8B4F9041002A801F066F81B4B61
:100A3000029A1B781A498DF8003006A83C2301F071
:100A400073FC07A8FFF761FB0A22B4F9021006A89D
:100A500000F0FFFF06A90D4800F0D0FF06A800F047
:100A600039FF0A22B4F9041006A800F0F2FF06A923
:100A7000074800F0C3FF06A800F02CFF02A800F012
:100A800029FF28460AB070BD354675E748030020A7
:100A90001403002052020020B0740A08C002002093
:100AA000B2740A0870B5012188B0072002F0F6F888
:100AB0000121062002F0F2F80121052002F0EEF8F3
:100AC0000221042002F0EAF80221012002F0E6F8F7
:100AD0000024B4234FF408720F21CDE900433648B7
:100AE0004FF4166300F00CFE344D354800F0ACF9BD
:100AF0003448FFF7F7FA29463348FFF7E9FB334953
:100B00003348FFF7E5FB33493348FFF7E1FB33494F
:100B10003348FFF7DDFB334E33493448FFF7D8FB4A
:100B200033493448FFF7D4FB3046334A334901F0A8
:100B300004FB334A3046334901F0FFFA3249284674
:100B400000F064FF04A8FFF7D5FB04A9284600F0D5
:100B5000C1FF04A800F0BEFE2C4B2D4D1C705C7034
:100B60009C702C4C0A22217804A800F060FF2946D2
:100B700004A800F0B3FFB4F9021004A800F0BDFF10
:100B8000294604A800F0AAFFB4F9041004A800F054
:100B9000B4FF214B049A1B7820498DF8003002A83D
:100BA0003C2301F0C1FB03A8FFF7AFFA04A800F053
:100BB00091FE08B070BD00BF600300203403002028
:100BC0005C020020E8020020C2740A0870030020C2
:100BD000C7740A0824030020D3740A080003002005
:100BE000DC740A080F210A0848030020E3740A088D
:100BF00014030020F8740A080E750A0871090A081F
:100C000024750A08C1020A0836750A08580200202D
:100C1000B0740A0852020020C0020020B2740A0810
:100C20000023144A10B50221137013480B2200F060
:100C300008F9124C124800F04FFD1248FFF74AFA2B
:100C40002146114800F090FE2146104800F08CFE2D
:100C500021460F4800F088FE0E490F4800F084FE40
:100C600021460E4800F080FE2146BDE810400C48A9
:100C700000F07ABEC00200205C020020E0760A0884
:100C800060030020E80200203403002070030020ED
:100C9000240300205C750A0800030020480300209C
:100CA00014030020F8B590F8293004468BB900F001
:100CB00075FA41F27071A26BA063831A8B4209D955
:100CC0006FF00103E362032384F82A30012384F8E0
:100CD0002930F8BD94F82A5005F0FF01002D48D0C6
:100CE0000129F6D1A3F13D025D2A70D894F836109F
:100CF0006E2B214491F830204FEA4202D2B281F8A3
:100D0000302008D994F83620224492F8301041F06F
:100D1000010182F83010226CDBB2511C2164137087
:100D200094F8353003F0FF05002B49D1072384F8F0
:100D3000353094F836300133DBB2052B84F8363089
:100D4000C7D1012084F8290094F8301094F831704C
:100D500094F83220394494F833300A4494F83460DB
:100D60001344DBB2B34224D04FF0FF33E3620323DA
:100D700011E0402B04D8A36B1A44121AA263A8E70F
:100D8000226CD9B27E3B5D2B02F101004FF00103D2
:100D900004D82064117084F82A309AE784F8293046
:100DA0006FF00203E3620323206484F82A30117099
:100DB0008FE70223E56284F82A3084F83C0088E754
:100DC00094F83530013BDBB284F8353081E7092BEC
:100DD00094BF6FF005026FF0030284F8291003231B
:100DE000E262D8E710B403685A689968541001EBBE
:100DF0006200D20748BF0A591B6810BC48BFD358CD
:100E00001847012A38B5044602D10B68236003E075
:100E1000022A03D0032A0DD0002038BD0C200D6813
:100E2000FFF73BF903460028F0D095E8070083E878
:100E30000700EBE700680028EED00C21FFF731F93E
:100E4000EAE7C0E911127047032238B5002380F8A1
:100E50002A2001256FF006020446C364C2622946B7
:100E600080F8293080F85050B0F8440001F016FFA7
:100E7000B4F84400294601F022FFBDE838404FF4A1
:100E80007A7001F02BB8000070B5044686B000F00F
:100E90008DF994F8503023B9E36CC31AB3F5FA6FA7
:100EA00067D394F82A30032B03D094F82A30022B0E
:100EB00061D100231A4684F85030E06484F82A3067
:100EC000E2540133292BFBD1072384F8302084F826
:100ED000312084F8322084F8332084F8342084F8D8
:100EE0003530002301216365A365B4F8440084F81C
:100EF0003620246401F0D2FE0021B4F8440001F051
:100F0000DEFEA36C0B2B2FD1122000F0E7FF002197
:100F1000B4F84400002501F0C1FE00F03FF9A063E1
:100F20000C2084F82950B4F844600495FFF7B5F814
:100F300018B1124B8460C0E90035114B0290059343
:100F4000104B0222049300233046009302A94FF075
:100F5000FF3301F0B7FC049B1BB102A90322084632
:100F60009847012006B070BD40F2DC5000F00EF949
:100F7000CDE70220F6E76FF00400F3E7A50C0A08BE
:100F8000E50D0A08030E0A0810B5836C04460B2B06
:100F90002AD0153B012B31D890F8303090F8310031
:100FA00000EB032080B202F0CBF81BA3D3E90023AF
:100FB00002F030F902F010FC94F8323060651B0644
:100FC00020D594F8323094F8330003F07F0300EB1F
:100FD0000320404202F0B4F80FA3D3E9002302F04B
:100FE00019F902F0F9FB08E090F8300002F0FAFC81
:100FF000606594F8320002F0F5FCA065002384F8E7
:101000003C3010BD94F8323094F8330000EB0320EC
:1010100080B2DFE7AFF300809A9999999999B93F27
:1010200090F82A30022B05D090F82A00033818BF18
:10103000012070470020704710B590F82930044611
:1010400033B1B0F8440001F0F7FB002384F82930F5
:1010500010BD10B50446FFF7EFFFE06A10BD0000B9
:1010600010B50446FFF7E8FF94F82A30032B03D1AC
:10107000E06A02F0BBFC10BD94F82A30022B07D1C5
:1010800094F83C3013B12046FFF77EFF606DF2E725
:101090000048F0E70000A0C010B50446FFF7CCFF01
:1010A00094F82A30032B03D1E06A02F09FFC10BDB4
:1010B00094F82A30022B17D194F83C3013B1204613
:1010C000FFF762FFA06D02F04DF80022074B02F01F
:1010D000A1F80022064B02F0C7F90022054B01F0EF
:1010E000E3FE02F079FBE2E70348E0E7000022407C
:1010F00000001440000040400000A0C008B5024BB2
:101100001B685B68019308BDB001060808B5024B77
:101110001B689B68019308BDB001060808B5024B27
:101120001B68DB68019308BDB001060808B5024BD7
:101130001B681B69019308BDB001060808B5024B86
:101140001B685B69019308BDB001060808B5024B36
:101150001B689B69019308BDB001060808B5024BE6
:101160001B68DB69019308BDB001060808B5024B96
:101170001B681B6B019308BDB001060808B5024B44
:101180001B685B68019308BD9C01060808B5024B0B
:101190001B68DB68019308BD9C01060808B5024B7B
:1011A0001B681B69019308BD9C01060808B5024B2A
:1011B0001B685B69019308BD9C01060808B5024BDA
:1011C0001B689B6A019308BD9C01060808B5024B89
:1011D0001B689B6C019308BD9C01060808B5024B77
:1011E0001B689B6D019308BD9C01060808B5024B66
:1011F0001B685B6E019308BD9C01060808B5024B95
:101200001B685B6C019308BDD001060808B5024B52
:101210001B689B6C019308BDD001060808B5024B02
:101220001B685B6A019308BDC401060808B5024B40
:101230001B689B6A019308BDC401060808B5024BF0
:101240001B68DB6A019308BDC401060808B5024BA0
:101250001B681B6B019308BDC401060808B5024B4F
:101260001B685B6B019308BDC401060808B5024BFF
:101270001B689B6B019308BDC401060808B5024BAF
:101280001B681B6C019308BDC401060808B5024B1E
:101290001B681B6E019308BDC401060808B5024B0C
:1012A0001B681B6E019308BDAC01060808B5024B14
:1012B0001B685B6E019308BDAC01060808B5024BC4
:1012C0001B689B6E019308BDAC01060808B5024B74
:1012D0001B68DB6E019308BDAC01060808B5024B24
:1012E0001B681B6F019308BDAC01060808B5024BD3
:1012F0001B685B6F019308BDAC01060808B5034B82
:101300001B68D3F88030019308BD0000AC010608CB
:1013100008B5024B1B68DB69019308BDB4010608E0
:1013200008B5024B1B681B6A019308BDB40106088F
:1013300008B5024B1B681B69019308BDA80106088C
:1013400008B5024B1B685B69019308BDA80106083C
:1013500008B5024B1B689B69019308BDA8010608EC
:1013600008B5024B1B681B68019308BDD80106082D
:1013700008B5024B1B681B69019308BDD80106081C
:1013800008B5024B1B685B69019308BDD8010608CC
:1013900008B5024B1B689B69019308BDD80106087C
:1013A00008B5024B1B68DB69019308BDD80106082C
:1013B00008B5024B1B681B6A019308BDD8010608DB
:1013C00008B5024B1B689B6C019308BDC001060861
:1013D00008B5024B1B681B68019308BDA4010608F1
:1013E00008B5024B1B685B68019308BDA4010608A1
:1013F00008B5024B1B685B69019308BDA401060890
:1014000008B5024B1B68DB6C019308BDA4010608FC
:1014100008B5024B1B685B6D019308BDA40106086B
:1014200008B5024B1B689B6D019308BDA40106081B
:1014300008B5034B1B68D3F89030019308BD00003A
:10144000A401060808B5034B1B68D3F89C30019330
:1014500008BD0000A401060808B5024B1B685B68C4
:10146000019308BDC801060808B5024B1B689B68BC
:10147000019308BDC801060808B5024B1B68DB686C
:10148000019308BDC801060808B5024B1B681B691B
:10149000019308BDC801060808B5024B1B685B69CB
:1014A000019308BDC801060808B5024B1B689B697B
:1014B000019308BDC801060808B5024B1B68DB692B
:1014C000019308BDC801060808B5024B1B681B6ADA
:1014D000019308BDC801060808B5024B1B681B6BC9
:1014E000019308BDC801060808B5024B1B685B6B79
:1014F000019308BDC801060808B5024B1B681B6CA8
:10150000019308BDC801060808B5024B1B685B6C57
:10151000019308BDC801060808B5024B1B681B688B
:10152000019308BDCC01060808B5024B1B685B6837
:10153000019308BDCC01060808B5024B1B689B68E7
:10154000019308BDCC01060808B5024B1B685B6916
:10155000019308BDCC01060808B5024B1B681B6A45
:10156000019308BDCC01060808B5024B1B681B6B34
:10157000019308BDCC01060808B5024B1B68DB6B64
:10158000019308BDCC01060808B5024B1B681B6817
:10159000019308BDA001060808B5024B1B685B68F3
:1015A000019308BDA001060808B5024B1B689B68A3
:1015B000019308BDA001060808B5024B1B681B6912
:1015C000019308BDA001060808B5024B1B689B6982
:1015D000019308BDA001060808B5024B1B68DB6932
:1015E000019308BDA001060808B5024B1B681B6AE1
:1015F000019308BDA001060808B5024B1B68DB6A11
:10160000019308BDA001060808B5024B1B681B6BBF
:10161000019308BDA001060808B5024B1B68DB6BEF
:10162000019308BDA001060808B5024B1B681B6C9E
:10163000019308BDA001060808B5024B1B685B6C4E
:10164000019308BDA001060870B5002604460D46AA
:1016500040F8086FFFF7D2FD28462570FFF758FEC7
:101660002046666070BDB0F900200B46511C0AD0C0
:1016700041888088994203D89842014628BF19467C
:1016800090B2FFF765BE704713B504460846B4F93B
:101690000610B4F90820884210DB9042A8BF10461B
:1016A000A3880093638800F00DFCE16801442046A4
:1016B00089B202B0BDE81040FFF7D5BF0846EFE79A
:1016C0004FF41663034AC0E90023B42303810023C7
:1016D000C3607047FFFF200208B5FFF7F1FF08BDA8
:1016E00010B50446B0F90000431C07D080B2FFF7E4
:1016F00027FE2046FFF7E4FF012010BD0020FCE795
:101700002DE9F0410D4604460221284690461F4629
:10171000FFF7F4FC022803D000263046BDE8F08134
:10172000284601F079FA06460028F5D0B4F90030D1
:10173000013302D02046FFF7D3FFBDF91830284609
:10174000E380BDF91C302580A4F80280A7802381A6
:10175000FFF7EEFDE1E7000002220020044B1A60D3
:10176000044B054AC3E900009A60FFF739BE00BF89
:101770008C030020800300200000FFFF10B504460A
:1017800003F06EFA431E20462344834206D90278B2
:10179000197800F8011B03F80129F6E710BD70B5B0
:1017A0000C46911E22291DD8254630B930222344EB
:1017B0009D4210D205F8012BFAE7B0FBF2F602FBCE
:1017C0001600C1B2092894BF30315731C9B2304632
:1017D00005F8011BE9E7002320462B70FFF7CEFF39
:1017E000204670BD0020FCE738B5031E0C461546A8
:1017F0000DDA2D22B3F1004F0CBF184658420123D9
:101800000A702A461944FFF7CAFF204638BD012353
:10181000F9E708B50123FFF7C2FF08BD2DE9F14F35
:1018200007460D4616461C46002200233846294628
:1018300001F062FF20B12D2305F1004504F8013BC2
:1018400000234FF0010A0A22D9B28E4203D902FBCB
:101850000AFA0133F8E7504601F072FC3A462B468B
:1018600001F0D8FC8046894602F0A2F90F460546F1
:101870008B4601F099FC02460B464046494601F072
:1018800011FB0022124B01F04BFF10B1013547F163
:10189000000B524628465946D31702F071F901232E
:1018A000154621460A22FFF77AFF76B1204603F05B
:1018B000D7F92E23211823540A2233462846013112
:1018C00001B0BDE8F04FFFF76ABF01B0BDE8F08F8F
:1018D0000000E03F10B504460068FFF75DFE2046BB
:1018E00010BD10B50446006808B1FFF755FE00238F
:1018F000C4E90133236010BD38B504460D460068C5
:101900000131FFF751FE10B1C4E90005012038BDD7
:1019100010B50368044623B143688B4201D301200C
:1019200010BD2046FFF7E8FF0028F9D0A368002B80
:10193000F5D122681370F2E770B50E4611460446E1
:101940001546FFF7E5FF20B92046FFF7CAFF2046FE
:1019500070BD2A4631462068A56002F0D9FB0021FF
:101960002268A368D154F2E738B5002304460D4637
:10197000C0E900338360037339B1084603F070F99E
:10198000294602462046FFF7D7FF204638BD38B526
:10199000054600680C4668B16A688B689A4207D3AE
:1019A000096802F003FCA368AB600023A36038BDA4
:1019B000FFF7F2FD23682B6063686B60A368AB6080
:1019C0000023C4E90033F1E7884210B50B46044612
:1019D00004D0096821B19A68FFF7AEFF204610BD18
:1019E000FFF77FFFFAE7002310B50446C0E9003394
:1019F00083600373FFF7E8FF204610BD884210B5EF
:101A0000044601D0FFF7C3FF204610BD38B5054698
:101A10000C4649B1084603F023F921460246284600
:101A2000FFF78AFF284638BDFFF75BFFFAE71FB5CF
:101A3000044600230846C4E90033A360237301A9C8
:101A4000FFF7E7FE204601A9FFF7E0FF204604B0BC
:101A500010BD10B5002304468AB0C4E90033A3606A
:101A60002373084601A9FFF7BFFE204601A9FFF72F
:101A7000CDFF20460AB010BD002330B504468BB020
:101A8000C0E9003383600373D5B2084601F06AFBF6
:101A90002A4601ABFFF7C2FE204601A9FFF7B6FFB9
:101AA00020460BB030BD70B505460E4609B9002082
:101AB00070BD6AB1846814442146FFF729FF0028ED
:101AC000F5D02868AB683146184402F06FFBAC6073
:101AD0000120EDE78A680968FFF7E5BF38B50546DC
:101AE0000C46084641B103F0BBF8214602462846A1
:101AF000BDE83840FFF7D7BF38BD13B50A2204460A
:101B000008466946FFF770FE684603F0A9F8694683
:101B100002462046FFF7C7FF02B010BD38B50446A5
:101B20000D4621B92046FFF7DCFE204638BD0846A9
:101B300003F096F8294602462046FFF7B4FF002836
:101B4000F0D0F2E783688B4203D9006810B1405CA3
:101B5000704700207047FFF7F5BF0000F8B51D463D
:101B60009A4288BF13460F46144688BF2C460B493D
:101B700088BF1D460646FFF7F7FEBB68A3420AD39F
:101B80003968AB4294BFC4EB0302C4EB0502304694
:101B90002144FFF7D1FE3046F8BD00BFE0760A08C9
:101BA00010B504468B68FFF7D9FF204610BD0068CA
:101BB00008B102F0B6B9704708B5006820B102F06C
:101BC000ADF901F009FE08BD0020FCE7F8B50646B6
:101BD0000D4600248F18BD420CD0336830469B68F8
:101BE00015F8011B9847031E01DB1C44F3E7002C8A
:101BF00008BF1C462046F8BD70B505460C46084691
:101C000049B103F02DF82B68024621462846BDE86D
:101C10007040DB68184770BD03689B681847002355
:101C2000012A98BF0A2230B58BB00C468DF82430BB
:101C300009A92546B4FBF2F404FB1253DBB2092BCD
:101C400094BF30333733DBB2AA4201F8013DF0D9FB
:101C5000FFF7D2FF0BB030BD014B024A1A6070474C
:101C60009003002062750A0808B50020FFF77CFC8D
:101C700028B1FFF769FC80F00100C0B208BD012067
:101C8000FCE7000030B593B0CDE90023194B0446C2
:101C9000D3E90010019B521843EB000316480025BE
:101CA000D0E90010521843EB0003CDE900232422B1
:101CB00000210DEB020002F039FA09A9684602F092
:101CC00035F91622294603A8029502F02FFA02A937
:101CD00009A802F0F7F802A802F0C2FF12AB1844FC
:101CE00000F8415C02A92046FFF73EFE204613B0F3
:101CF00030BD00BFA8030020A00300202DE9F0475D
:101D0000A4B00746884614A811463F221C4602F09C
:101D1000C3FF002314A88DF88F3002F0A1FF054601
:101D20004CBB294903A802F041FA002614AC05F186
:101D3000FF39B14534D9237806F1010A252B17D193
:101D400063787A2B14D103A802F08AFF054614ABFE
:101D500030181844A9EB0602A11C02F0D9F92A4652
:101D600003A9204602F0D4F914A802F079FF054631
:101D700056460134DBE73C2394FBF3F2002AB8BF5C
:101D80005242B2FBF3F103FB11224FF46163009264
:101D900094FBF3F310210D4A03A8FFF71DFCC4E7E1
:101DA00000212E2208A8079102F0C0F9434614AA88
:101DB000322107A802F052FF384607A9FFF7D4FDE9
:101DC000384624B0BDE8F087F17A0A0866750A083B
:101DD000F0B58DB0129D0446CDE9002315B9194B1D
:101DE0001D682DB1184B2846196802F0D5F938B98D
:101DF000DDE900232046FFF745FF20460DB0F0BD8A
:101E00000099124E124FD6E900325B18019942EB4D
:101E10000102D7E900011B1842EB0102CDE90032B3
:101E20000021242203A802F081F903A9684602F0E8
:101E30007DF832683B682046134403A92A46FFF721
:101E40005DFFDAE79803002008000020A8030020C7
:101E5000A003002010B50020FFF7C0F90446A0B988
:101E6000FFF7B6FA012810D12046FFF7D9FA60B97A
:101E7000FFF7FAFE10B9FFF75FFBF9E7FFF7F4FE93
:101E8000BDE810400020FFF7A9B9204610BD1FB5DE
:101E9000FFF7E0FF10220021684602F047F9002119
:101EA0006846FFF7A3F9009805B05DF804FB000051
:101EB000024B1A68024B1A60704700BF08000020EE
:101EC000980300208A4210B507D0029C401AE41AF9
:101ED0006043521A90FBF2F0184410BD0021FFF746
:101EE00087BA10B58368044613B1032201469847A8
:101EF000204610BD13B56C460B46024603C884E865
:101F0000030093E8030082E8030094E8030083E8F9
:101F1000030002B010BD00000022014B9A60704720
:101F2000B0030020014B1860704700BF0C00002078
:101F300008B5134B43B100F025FC03681B699847B3
:101F4000002801DDAFF300800E4B43B100F016FF17
:101F500003681B699847002801DDAFF300800A4B36
:101F60000BB1AFF30080094B43B100F037FC0368BD
:101F70001B699847002801DDAFF3008008BD00BF52
:101F80000000000000000000000000000000000051
:101F900008B5FFF7CDFFFFF709F9014B186008BD41
:101FA000900400200548064A08B5121A054902F0B7
:101FB000AFF8054B054A1A6008BD00BF004002405B
:101FC00004400240887E0A08004002401E1C279AF6
:101FD000002307B51A466FF077010093FFF732FA36
:101FE00003B05DF804FB000007B543880A2B08D056
:101FF000502B0BD1094B1B684BB103B05DF804EBC0
:102000001847FFF7E5FF03B05DF804FB00231A460D
:102010006FF077010093FFF715FAF4E7C40300208F
:10202000002110B51148FFF707FB114B1A68114B3F
:102030009A420CBF012200220F4B1A7001D0FFF709
:10204000B1FFFFF79BF8044602F078F80B4B13B191
:102050002046AFF3008000210848FFF78DFABDE865
:10206000104000210648FFF7E3B900BF251F0A080A
:10207000004002401E1C279AC00300200000000000
:10208000E91F0A0870470020704710B50446102168
:10209000FEF707F8204610BD08B5FFF7F6FF08BDAC
:1020A000002230B54FF69C74026084808D888C804D
:1020B0000C68858004600A6030BD10B50446006875
:1020C000FFF76AFA204610BD38B5C468F4B123782A
:1020D000022B03D104F10C00FFF7EFFF656835B167
:1020E0002846FFF7FEFE10212846FDF7DAFFA56817
:1020F00035B12846FFF7F5FE10212846FDF7D1FF40
:102100002046BDE838401421FDF7CBBF38BD10B5DF
:1021100088B004466846FFF727FC694604A8FFF725
:1021200062FC04A8A047044604A8FFF7D3FB684656
:10213000FFF7D0FB204608B010BD1FB500231024C8
:10214000CDE90201019269461A461846ADF80230FF
:10215000ADF80040FFF7E8F904B010BD0B6803606C
:102160004B68436013B15A6801325A60704737B503
:10217000044668460D46FFF7F1FF009B019A236075
:102180000023626001A801930093FDF7BEFF35B103
:10219000281DFDF7BAFF08212846FDF782FF2046DB
:1021A00003B030BD826810B50AB900F06DFEC36897
:1021B000BDE81040184708B5006800F11001FFF7AE
:1021C000F1FF08BD826810B50AB900F05DFEC36872
:1021D000BDE81040184708B5006800F11001FFF78E
:1021E000F1FF08BD38B500230446036010200D46FA
:1021F000FDF753FF28B10123C0E90133024BC5604D
:1022000003602060204638BD98750A0838B5002361
:1022100083608B6804460D462BB102229847EB6819
:10222000E360AB68A360204638BD0000F0B589B01C
:1022300004686846FFF734FF4FF00203D4E84F2FDD
:10224000002A03D1C4E8413F0029F7D125D104F188
:102250000C0569462846FFF723FF0123BFF35B8F78
:1022600063700020BFF35B8F04F1080353E8006F35
:1022700043E80002002AF9D1BFF35B8F6EB1FFF78C
:10228000BFF878B129463046FFF78CFF3046FFF79C
:1022900028FE10213046FDF704FF6846FFF70DFFCA
:1022A00009B0F0BD314602A8FFF7B0FFE068B4F90D
:1022B000105008B101F082FF06901020ADF81C50BC
:1022C000FDF7EBFE0546E8B1002787601820FDF713
:1022D000E4FE044688B10146876002A8FFF70AFEC3
:1022E000049BA268A360059B0492E26806A9E360D0
:1022F00004F110000592FFF7D3FE084B2C60EB6051
:10230000074BAB6006A8FFF7D8FE02A8FFF7E9FD70
:10231000002229460348FFF77BF8B7E7B7210A08F0
:1023200041240A08C9290A082DE9F0478AB0054660
:102330000C46174698469DF84890FFF705F907AEFA
:10234000824638BB4FF62E73059005A93046ADF88E
:102350001830FFF7A5FE1420FDF79FFE044648B194
:10236000022303700123C0E901AA437031460C30F7
:10237000FFF796FE2846214640F8044BFFF732FF50
:102380003046FFF79AFE05A8FFF797FE28460AB0E9
:10239000BDE8F0870C234FF0000A1420CDE908AA0D
:1023A0000793FDF77AFE014628B1C0E901AA80F83B
:1023B00000A080F801A004A80391FFF713FF1F4BB2
:1023C00008200893FDF769FE824610B103A9FFF7C4
:1023D000C5FE42463946204600965FFA89F3CDF89D
:1023E00024A0FFF7B9F8B8B9039B5B7803F0FF02AC
:1023F00093B94FF69C7305A903A80592ADF8183060
:10240000FFF714FF05A8FFF758FE05A80999FFF785
:10241000AEFE06A8FDF779FE03A905A8FFF79EFE0C
:10242000059B069A2B6000236A6006A80693059315
:10243000FDF76BFE04A8FDF768FEA7E7BD240A08B8
:10244000012AF8B5054603D10B6803600020F8BDEA
:10245000022A10D0032AF9D10468002CF6D004F126
:102460001000FFF72AFE2046FFF73BFD182120460B
:10247000FDF717FEEAE718200E68FDF70EFE04468A
:1024800050B13146FFF7C2FE3069B6F9147008B199
:1024900001F094FE2061A7822C60D7E738B50023B5
:1024A00083608B6804460D462BB102229847EB6887
:1024B000E360AB68A360204638BD0000F0B5044679
:1024C00089B00D4601A81146FFF751FEA4B124B210
:1024D0001DB1284601F072FE054601A803A9039527
:1024E000ADF81040FFF7A2FE03A8FFF7E6FD02A833
:1024F000FDF70BFE09B0F0BD0123019DD5E84F2F7C
:10250000002A03D1C5E8413F0029F7D1EFD12B7351
:10251000BFF35B8F6B70BFF35B8F2B1D53E8006FB6
:1025200043E80042002AF9D1BFF35B8F002EDED0D2
:102530002046FEF765FF074660B1304605F10C0105
:10254000FFF740FE3046FFF7CCFC10213046FDF788
:10255000A8FDCCE7314603A8FFF7A0FF2B7B102096
:102560008DF81C30FDF799FD0546D0B18760142029
:10257000FDF793FD044678B10146876003A8FFF795
:10258000B9FC059BA268A360069B0592E268E36024
:102590009DF81C3006922374064B2C60EB60064BB2
:1025A000AB6003A8FFF79DFC002229460348FEF715
:1025B0002FFFC7E7D7210A08C1250A08C9290A0839
:1025C000012A70B5044603D10B680360002070BD7A
:1025D000022A0CD0032AF9D10468002CF6D0204638
:1025E000FFF77FFC14212046FDF75BFDEEE714208A
:1025F0000E68FDF752FD054620B13146FFF74EFF4C
:10260000337C2B742560E1E77047F8B50E46002453
:1026100000F10807051D17F8011D0A223046FFF7D3
:10262000FEFAAF42044401D12046F8BD002CF2D09E
:102630002E213046FFF7F0FA0444ECE710B50446CB
:102640001821FDF72EFD204610BD000010B50446F0
:10265000044B1122002140F8043B01F067FD2046A5
:1026600010BD00BFB4750A080346074A10B543F809
:10267000042B01F1100251F8044B914243F8044B32
:10268000F9D10A781A7010BDB4750A08024AC0E977
:102690000021042202757047B4750A0810B59DF830
:1026A000084044EA0324042344EA024444EA01645F
:1026B0004460037510BD000013B5044C04609DF820
:1026C00010400094FFF7EAFF02B010BDB4750A088D
:1026D000417470477047704708B50021007CFEF7D1
:1026E00057FE40EAE07008BD08B50121007CFEF706
:1026F0004FFE40EAE07008BD08B5007CFEF740FEE2
:1027000020EAE07008BD08B5007CFEF731FE20EA43
:10271000E07008BD38B50446007C0D46FEF730FE7B
:10272000002801DC607C28B12946207CFEF738FEB9
:1027300020EAE07038BD007CFEF73ABE10B50446D2
:102740001421FDF7AEFC204610BD704710B54FF4C4
:102750007A73044608460021C4E90113044B20742F
:102760002360012311466374FEF7FAFD204610BD75
:10277000C8750A0810B504461422002101F0D6FCE1
:10278000204610BD30B50E4D87B001A8FFF7F2FF0F
:102790002978BFF35B8F11F001040ED12846FDF7B5
:1027A00082FC50B1214601AA0648FFF7CFFF284618
:1027B000FDF77EFC044801F0ABFB024807B030BDDA
:1027C000C8030020D0030020D5260A0810B504460F
:1027D0001422002101F0AAFC204610BD10B50E4CB9
:1027E00086B001A8FFF7F2FF2378BFF35B8FDB070A
:1027F0000ED42046FDF757FC50B1012101AA07482D
:10280000FFF7A4FF2046FDF753FC054801F080FBCD
:10281000024806B010BD00BFCC030020E403002036
:102820004B270A08826810B50AB900F02DFBC3686F
:10283000BDE8104018470000F8B50446FEF78EFCCE
:10284000054670B9084F57F8246046B13046FFF787
:1028500048FB10213046FDF724FC47F824500120A6
:1028600000E00020F8BD00BFF803002038B50023C9
:1028700083608B6804460D462BB102229847EB68B3
:10288000E360AB68A360204638BD0000F8B50C4F8C
:10289000054657F820400E4634B12046FFF721FB8D
:1028A00010212046FDF7FDFB1020FDF7F6FB044646
:1028B00010B13146FFF7DAFF204647F82540F8BD52
:1028C000F8030020F0B50C46054685B017461E46B5
:1028D000FEF744FC21462846FFF7D8FF0446E8B13E
:1028E000002104238E428DF80C30A8BF9DF82830BB
:1028F000ADF80D108DF80F10A4BF03A98DF80E30A0
:10290000024600913B4628460649A8BF8DF80D6057
:10291000FEF71CFC10B1002005B0F0BD201E18BF52
:102920000120F9E725280A0870474174704708B567
:10293000007CFEF7A3FC20EAE07008BD08B5007C2F
:10294000FEF774FC20EAE07008BD08B5007CFEF7D5
:102950007DFC40EAE07008BD08B5007CFEF76EFC27
:1029600040EAE07008BD007CFEF778BC70B5467C9C
:1029700004460D462EB12946207CBDE87040FEF786
:102980004DBC007CFEF77AFC0028F4DC304670BDBC
:1029900010B504461421FDF784FB204610BD00004D
:1029A00010B54FF47A730446084611460022C4E974
:1029B0000123044B2074236001236374FEF766FC3B
:1029C000204610BDF8750A0810B5836804460BB997
:1029D00000F05AFAC3689847A3681BB10322214646
:1029E000204698472046BDE810401021FDF759BB0E
:1029F0007047F8B5064615460C468F18BC4206D0FF
:102A0000336830469B6814F8011B9847F6E7284660
:102A1000F8BD0022007CFEF741BC0021007CFEF7DF
:102A200045BC0021007CFEF749BC0021007CFEF77C
:102A30004DBC0021007CFEF751BC10B504461421AA
:102A4000FDF72FFB204610BD10B54FF47A730446F6
:102A500008460021C4E90113034B1146236020748A
:102A6000FEF74CFC204610BD28760A08002240687C
:102A70001146FEF709BDF0B5154689B011220E4684
:102A80000446002103A801F051FB284602F0E8F8B3
:102A9000002781B273682846009703AAFEF790FCCE
:102AA00030B139462046FFF7F1FD204609B0F0BDB0
:102AB000204603A9FFF7D8FDF7E70022406811463A
:102AC000FEF702BD002240681146FEF70DBD002250
:102AD0004068FEF701BD0022406881F00101FEF769
:102AE000EBBC002340681A461946FEF7DDBC002304
:102AF00040681A461946FEF7CFBC002240681146CE
:102B0000FEF7B2BC002202214068FEF7B5BC0023EC
:102B100040681A46FEF7A0BC0422024B5A60024AE3
:102B20001A6070475804002050760A080023406855
:102B30001A46FEF791BC002202214068FEF79CBCB9
:102B4000002240681146FEF78FBC00224068114603
:102B5000FEF79ABC002340681A461946FEF79CBC53
:102B6000002340681A461946FEF79EBC00214068C3
:102B7000FEF7C2BC00214068FEF7C6BC00224068D8
:102B800081F00101FEF798BC00224068FEF7A4BC6A
:102B9000002240681146FEF7A7BC0022406811469B
:102BA000FEF792BC70B515468EB0044608A8FFF734
:102BB0004DFD1122002103A801F0B8FA0026284695
:102BC00002F04EF80A4B009681B25B68284603AAD1
:102BD000FEF7F6FB30B131462046FFF757FD2046A1
:102BE0000EB070BD204603A9FFF73EFDF7E700BF1A
:102BF00058040020024B034A1A6000225A607047B2
:102C0000600400208C760A08024B986808B1FEF731
:102C1000FDBA70476C040020172870B5044601D92E
:102C2000002070BDA0F10D03022B0BD9012824D880
:102C300000F004F90021007CFEF758FB80F0010051
:102C4000C0B2EEE7124E3178BFF35B8F11F0010591
:102C50000DD13046FDF727FA48B129460D48FEF759
:102C6000F3FC3046FDF724FA0B4801F051F9094B0B
:102C70001878FEF755FB0028D2D1123C012C05D85C
:102C800000F07CF8007CFEF7F1FAD7E70120C8E7F6
:102C9000680400206C040020092C0A08172838B5A5
:102CA00004460D460AD8FF2908D0FFF7B5FF28B122
:102CB00029462046BDE83840FEF728BA38BD38B569
:102CC00004460D46FEF72AFAFF2810D0062804D83D
:102CD0004D2323FA00F0C30709D42046FFF79CFFD9
:102CE00028B129462046BDE83840FEF71FBA38BD56
:102CF00010B50446FEF712FA031FDBB2012B08D908
:102D00002046FFF789FF20B12046BDE81040FEF7BE
:102D100015BA002010BD10B5044609289CBF0A341E
:102D2000A4B22046FFF778FF50B103212046FEF7FA
:102D3000E5F9032804D12046BDE81040FEF716BA95
:102D4000002010BD7047000070B5142504462A46C7
:102D5000002101F0EBF925808025074E28463146F9
:102D60002581258200F08EF831466060284600F00B
:102D700089F8E060204670BDC0760A0830B50E4D77
:102D800087B02978BFF35B8F11F0010411D1284679
:102D9000FDF789F968B101A8FFF7D6FF214601AA1E
:102DA0000648FFF7FDFD2846FDF782F9044801F0CB
:102DB000AFF8024807B030BD780400207C04002042
:102DC000452D0A0810B5084C2378BFF35B8FDB074D
:102DD00008D42046FDF767F920B1FEF7EFF9204649
:102DE000FDF766F9014810BD940400209804002006
:102DF000002307B51A46194600930348FFF75CFC09
:102E000003B05DF804FB00BF9C0400207047000085
:102E100070B514232025084E0446036031468560B2
:102E20000561284600F02EF831466060284600F023
:102E300029F8E060204670BDC0760A0830B50E4D16
:102E400087B02978BFF35B8F11F0010411D12846B8
:102E5000FDF729F968B101A8FFF7DAFF214601AAB9
:102E60000648FFF7F1FD2846FDF722F9044801F076
:102E70004FF8024807B030BDB4040020B804002069
:102E80000D2E0A08FDF70BB908B5FEF7B5FB0000DB
:102E900000200149704700BF0000F87F81F0004129
:102EA00002E000BF83F0004330B54FEA41044FEA2F
:102EB000430594EA050F08BF90EA020F1FBF54EACA
:102EC000000C55EA020C7FEA645C7FEA655C00F066
:102ED000E2804FEA5454D4EB5555B8BF6D420CDD37
:102EE0002C4480EA020281EA030382EA000083EABA
:102EF000010180EA020281EA0303362D88BF30BD5A
:102F000011F0004F4FEA01314FF4801C4CEA1131AF
:102F100002D0404261EB410113F0004F4FEA03330E
:102F20004CEA133302D0524263EB430394EA050F99
:102F300000F0A780A4F10104D5F1200E0DDB02FA08
:102F40000EFC22FA05F2801841F1000103FA0EF29C
:102F5000801843FA05F359410EE0A5F120050EF162
:102F6000200E012A03FA0EFC28BF4CF0020C43FA93
:102F700005F3C01851EBE37101F0004507D54FF0A0
:102F8000000EDCF1000C7EEB00006EEB0101B1F5F0
:102F9000801F1BD3B1F5001F0CD349085FEA300036
:102FA0004FEA3C0C04F101044FEA445212F5800F41
:102FB00080F09A80BCF1004F08BF5FEA500C50F1DE
:102FC000000041EB045141EA050130BD5FEA4C0CC1
:102FD000404141EB0101013C28BFB1F5801FE9D21E
:102FE00091F0000F04BF01460020B1FA81F308BF41
:102FF0002033A3F10B03B3F120020CDA0C3208DD0D
:1030000002F1140CC2F10C0201FA0CF021FA02F1E7
:103010000CE002F11402D8BFC2F1200C01FA02F157
:1030200020FA0CFCDCBF41EA0C019040E41AA2BF7C
:1030300001EB0451294330BD6FEA04041F3C1CDA44
:103040000C340EDC04F11404C4F1200220FA04F064
:1030500001FA02F340EA030021FA04F345EA03010E
:1030600030BDC4F10C04C4F1200220FA02F001FAD0
:1030700004F340EA0300294630BD21FA04F0294652
:1030800030BD94F0000F83F4801306BF81F48011EB
:103090000134013D4EE77FEA645C18BF7FEA655C5E
:1030A00029D094EA050F08BF90EA020F05D054EA30
:1030B000000C04BF1946104630BD91EA030F1EBF35
:1030C0000021002030BD5FEA545C05D14000494139
:1030D00028BF41F0004130BD14F580043CBF01F52C
:1030E000801130BD01F0004545F0FE4141F4700112
:1030F0004FF0000030BD7FEA645C1ABF19461046ED
:103100007FEA655C1CBF0B46024650EA013406BFED
:1031100052EA033591EA030F41F4002130BD00BFAC
:1031200090F0000F04BF0021704730B54FF4806469
:1031300004F132044FF000054FF0000150E700BFEA
:1031400090F0000F04BF0021704730B54FF4806449
:1031500004F1320410F0004548BF40424FF0000136
:103160003EE700BF42004FEAE2014FEA31014FEA79
:1031700002701FBF12F07F4393F07F4F81F06051C8
:10318000704732F07F4208BF704793F07F4F04BF13
:1031900041F40021704730B54FF4607401F00045F0
:1031A00021F000411CE700BF50EA010208BF704750
:1031B00030B54FF000050AE050EA010208BF704741
:1031C00030B511F0004502D5404261EB41014FF4AA
:1031D000806404F132045FEA915C3FF4D8AE4FF0B2
:1031E00003025FEADC0C18BF03325FEADC0C18BF95
:1031F000033202EBDC02C2F1200300FA03FC20FAE6
:1032000002F001FA03FE40EA0E0021FA02F1144432
:10321000BDE600BF70B54FF0FF0C4CF4E06C1CEA4B
:1032200011541DBF1CEA135594EA0C0F95EA0C0FBC
:1032300000F0DEF82C4481EA030621EA4C5123EA2F
:103240004C5350EA013518BF52EA033541F480115E
:1032500043F4801338D0A0FB02CE4FF00005E1FB11
:1032600002E506F00042E0FB03E54FF00006E1FB5B
:1032700003569CF0000F18BF4EF0010EA4F1FF049E
:10328000B6F5007F64F5407404D25FEA4E0E6D41DE
:1032900046EB060642EAC62141EA55514FEAC520EF
:1032A00040EA5E504FEACE2EB4F1FD0C88BFBCF56B
:1032B000E06F1ED8BEF1004F08BF5FEA500E50F11C
:1032C000000041EB045170BD06F0004646EA0101E2
:1032D00040EA020081EA0301B4EB5C04C2BFD4EB14
:1032E0000C0541EA045170BD41F480114FF0000E0D
:1032F000013C00F3AB8014F1360FDEBF002001F07B
:10330000004170BDC4F10004203C35DA0C341BDCF4
:1033100004F11404C4F1200500FA05F320FA04F0C6
:1033200001FA05F240EA020001F0004221F00041FA
:1033300010EBD37021FA04F642EB06015EEA430E6D
:1033400008BF20EAD37070BDC4F10C04C4F120059D
:1033500000FA04F320FA05F001FA04F240EA020050
:1033600001F0004110EBD37041F100015EEA430E21
:1033700008BF20EAD37070BDC4F1200500FA05F241
:103380004EEA020E20FA04F301FA05F243EA0203C0
:1033900021FA04F001F0004121FA04F220EA0200CF
:1033A00000EBD3705EEA430E08BF20EAD37070BD15
:1033B00094F0000F0FD101F00046400041EB0101F5
:1033C00011F4801F08BF013CF7D041EA060195F0D7
:1033D000000F18BF704703F00046520043EB030391
:1033E00013F4801F08BF013DF7D043EA060370477E
:1033F00094EA0C0F0CEA135518BF95EA0C0F0CD089
:1034000050EA410618BF52EA4306D1D181EA0301CE
:1034100001F000414FF0000070BD50EA410606BFC8
:103420001046194652EA430619D094EA0C0F02D10D
:1034300050EA013613D195EA0C0F05D152EA033652
:103440001CBF104619460AD181EA030101F0004170
:1034500041F0FE4141F470014FF0000070BD41F0B9
:10346000FE4141F4780170BD70B54FF0FF0C4CF493
:10347000E06C1CEA11541DBF1CEA135594EA0C0FB2
:1034800095EA0C0F00F0A7F8A4EB050481EA030EFF
:1034900052EA03354FEA013100F088804FEA0333E6
:1034A0004FF0805545EA131343EA12634FEA0222B4
:1034B00045EA111545EA10654FEA00260EF0004175
:1034C0009D4208BF964244F1FD0404F5407402D2C7
:1034D0005B084FEA3202B61A65EB03055B084FEA58
:1034E00032024FF480104FF4002CB6EB020E75EB55
:1034F000030E22BFB61A754640EA0C005B084FEA7D
:103500003202B6EB020E75EB030E22BFB61A7546F9
:1035100040EA5C005B084FEA3202B6EB020E75EB44
:10352000030E22BFB61A754640EA9C005B084FEABC
:103530003202B6EB020E75EB030E22BFB61A7546C9
:1035400040EADC0055EA060E18D04FEA051545EAB8
:1035500016754FEA06164FEAC30343EA52734FEA61
:10356000C2025FEA1C1CC0D111F4801F0BD141EADA
:1035700000014FF000004FF0004CB6E711F4801F3F
:1035800004BF01430020B4F1FD0C88BFBCF5E06F1F
:103590003FF6AFAEB5EB030C04BFB6EB020C5FEA2F
:1035A000500C50F1000041EB045170BD0EF0004E84
:1035B0004EEA113114EB5C04C2BFD4EB0C0541EAB6
:1035C000045170BD41F480114FF0000E013C90E6B3
:1035D00045EA060E8DE60CEA135594EA0C0F08BF77
:1035E00095EA0C0F3FF43BAF94EA0C0F0AD150EA76
:1035F00001347FF434AF95EA0C0F7FF425AF104609
:1036000019462CE795EA0C0F06D152EA03353FF430
:10361000FDAE1046194622E750EA410618BF52EAAD
:1036200043067FF4C5AE50EA41047FF40DAF52EA81
:1036300043057FF4EBAE12E74FF0FF3C06E000BF1E
:103640004FF0010C02E000BF4FF0010C4DF804CD2B
:103650004FEA410C7FEA6C5C4FEA430C18BF7FEAEB
:103660006C5C1BD001B050EA410C0CBF52EA430C19
:1036700091EA030F02BF90EA020F0020704710F199
:10368000000F91EA030F58BF994208BF90422CBF28
:10369000D8176FEAE37040F0010070474FEA410C21
:1036A0007FEA6C5C02D150EA013C07D14FEA430C3F
:1036B0007FEA6C5CD6D152EA033CD3D05DF8040BB0
:1036C000704700BF8446104662468C4619466346E2
:1036D00000E000BF01B5FFF7B7FF002848BF10F1B9
:1036E000000F01BD4DF808EDFFF7F4FF0CBF0120FE
:1036F00000205DF808FB00BF4DF808EDFFF7EAFF7A
:1037000034BF012000205DF808FB00BF4DF808ED34
:10371000FFF7E0FF94BF012000205DF808FB00BF29
:103720004DF808EDFFF7CEFF94BF012000205DF8B3
:1037300008FB00BF4DF808EDFFF7C4FF34BF0120C0
:1037400000205DF808FB00BF4FEA410212F50012AD
:1037500015D211D56FF47873B3EB625212D94FEAD8
:10376000C12343F0004343EA505311F0004F23FAC2
:1037700002F018BF404270474FF00000704750EA17
:10378000013005D111F0004008BF6FF000407047D4
:103790004FF00000704700BF4A0011D212F500122E
:1037A00011D20DD56FF47873B3EB62520ED44FEA99
:1037B000C12343F0004343EA505323FA02F0704719
:1037C0004FF00000704750EA013002D14FF0FF3057
:1037D00070474FF0000070474FEA4102B2F1E043FA
:1037E00024BFB3F5001CDCF1FE5C0DD901F0004CE8
:1037F0004FEAC0024CEA5070B2F1004F40EB830038
:1038000008BF20F00100704711F0804F21D113F163
:103810003872BCBF01F00040704741F480114FEA9C
:103820005252C2F11802C2F1200C10FA0CF320FA25
:1038300002F018BF40F001004FEAC1234FEAD32342
:1038400003FA0CFC40EA0C0023FA02F34FEA4303AC
:10385000CCE77FEA625307D150EA01331EBF4FF035
:10386000FE4040F44000704701F0004040F0FE4050
:1038700040F40000704700BF80F0004002E000BF4D
:1038800081F0004142001FBF5FEA410392EA030F4B
:103890007FEA226C7FEA236C6AD04FEA1262D2EB95
:1038A0001363C1BFD218414048404140B8BF5B429A
:1038B000192B88BF704710F0004F40F4000020F033
:1038C0007F4018BF404211F0004F41F4000121F049
:1038D0007F4118BF494292EA030F3FD0A2F1010293
:1038E00041FA03FC10EB0C00C3F1200301FA03F1D1
:1038F00000F0004302D5494260EB4000B0F5000FF4
:1039000013D3B0F1807F06D340084FEA310102F1B2
:103910000102FE2A51D2B1F1004F40EBC25008BF64
:1039200020F0010040EA03007047490040EB00002E
:10393000013A28BFB0F5000FEDD2B0FA80FCACF12F
:10394000080CB2EB0C0200FA0CF0AABF00EBC2505C
:1039500052421843BCBFD0401843704792F0000F4A
:1039600081F4000106BF80F400000132013BB5E79D
:103970004FEA41037FEA226C18BF7FEA236C21D013
:1039800092EA030F04D092F0000F08BF0846704778
:1039900090EA010F1CBF0020704712F07F4F04D146
:1039A000400028BF40F00040704712F100723CBF59
:1039B00000F50000704700F0004343F0FE4040F483
:1039C000000070477FEA226216BF08467FEA236341
:1039D0000146420206BF5FEA412390EA010F40F42C
:1039E000800070474FF0000304E000BF10F0004378
:1039F00048BF40425FEA000C08BF704743F096435F
:103A000001464FF000001CE050EA010208BF704779
:103A10004FF000030AE000BF50EA010208BF704700
:103A200011F0004302D5404261EB41015FEA010C15
:103A300002BF84460146002043F0B64308BFA3F10D
:103A40008053A3F50003BCFA8CF2083AA3EBC253EF
:103A500010DB01FA02FC634400FA02FCC2F120020E
:103A6000BCF1004F20FA02F243EB020008BF20F045
:103A70000100704702F1200201FA02FCC2F12002AB
:103A800050EA4C0021FA02F243EB020008BF20EAA0
:103A9000DC7070474FF0FF3C06E000BF4FF0010CB8
:103AA00002E000BF4FF0010C4DF804CD4FEA400298
:103AB0004FEA41037FEA226C18BF7FEA236C11D0E2
:103AC00001B052EA530C18BF90EA010F58BFB2EB95
:103AD000030088BFC81738BF6FEAE17018BF40F015
:103AE000010070477FEA226C02D15FEA402C05D1C9
:103AF0007FEA236CE4D15FEA412CE1D05DF8040B4E
:103B0000704700BF844608466146FFE70FB5FFF7E0
:103B1000C9FF002848BF10F1000F0FBD4DF808ED98
:103B2000FFF7F4FF0CBF012000205DF808FB00BF89
:103B30004DF808EDFFF7EAFF34BF012000205DF8E3
:103B400008FB00BF4DF808EDFFF7E0FF94BF012030
:103B500000205DF808FB00BF4DF808EDFFF7D2FF2D
:103B600094BF012000205DF808FB00BF4DF808ED70
:103B7000FFF7C8FF34BF012000205DF808FB00BF3D
:103B800053B94AB9002908BF00281CBF4FF0FF31C4
:103B90004FF0FF3000F094B9ADF1080C6DE904CEA0
:103BA00000F024F8DDF804E0DDE9022304B07047FA
:103BB000D0B500220B4B06460F46FFF72BFBFFF755
:103BC000EBFD0446FFF7ACFA0022074BFFF722FBA0
:103BD00002460B4630463946FFF764F9FFF7DCFD35
:103BE0002146D0BD0000F03D0000F0412DE9F04736
:103BF000089E0D4604468846002B4DD18A429446C5
:103C000068D9B2FA82F252B101FA02F3C2F120018C
:103C100020FA01F10CFA02FC41EA030894404FEA51
:103C20001C41B8FBF1F71FFA8CFE01FB178807FB5C
:103C30000EF0230C43EA084398420AD91CEB030315
:103C400007F1FF3580F01E81984240F21B81023F50
:103C500063441B1AB3FBF1F001FB103300FB0EFEB3
:103C6000A4B244EA0344A6450AD91CEB040400F1BB
:103C7000FF3380F00981A64540F206816444023892
:103C80000021A4EB0E0440EA07401EB10023D440FB
:103C9000C6E90043BDE8F0878B4208D9002E00F04A
:103CA000EE800021C6E900050846BDE8F087B3FABA
:103CB00083F100294AD1AB4202D3824200F2FC8058
:103CC000841A65EB030301209846002EE2D0C6E972
:103CD0000048DFE702B9FFDEB2FA82F2002A40F0C4
:103CE0009180A1EB0C0001214FEA1C471FFA8CFECA
:103CF000B0FBF7F307FB1300250C45EA00450EFB6C
:103D000003F0A84208D91CEB050503F1FF3802D2E5
:103D1000A84200F2CE8043462D1AB5FBF7F007FB10
:103D200010550EFB00FEA4B244EA0544A64508D98E
:103D30001CEB040400F1FF3502D2A64500F2B68068
:103D40002846A4EB0E0440EA03409EE7C1F1200799
:103D50008B4022FA07FC4CEA030C25FA07FA4FEADB
:103D60001C49BAFBF9F820FA07F309FB18AA8D40A1
:103D70001FFA8CFE1D4300FA01F308FB0EF02C0C19
:103D800044EA0A44A04202FA01F20BD91CEB0404F3
:103D900008F1FF3A80F08880A04240F28580A8F1C7
:103DA00002086444241AB4FBF9F009FB104400FB38
:103DB0000EFEADB245EA0444A64508D91CEB040446
:103DC00000F1FF356CD2A6456AD90238644440EA56
:103DD0000840A0FB0295A4EB0E04AC42C846AE46D8
:103DE00056D353D0002E69D0B3EB080264EB0E0417
:103DF00022FA01F304FA07F71F43CC40C6E9007426
:103E0000002147E70CFA02FCC2F1200125FA01F378
:103E10004FEA1C4720FA01F195400D43B3FBF7F13F
:103E200007FB11331FFA8CFE280C40EA034001FB0C
:103E30000EF3834204FA02F408D91CEB000001F1EE
:103E4000FF382FD283422DD902396044C01AB0FB0B
:103E5000F7F307FB1300ADB245EA004503FB0EF094
:103E6000A84208D91CEB050503F1FF3816D2A84279
:103E700014D9023B6544281A43EA014138E7314628
:103E8000304607E72F46E4E61846F9E64B45A9D247
:103E9000B9EB020865EB0C0E0138A3E74346EAE7ED
:103EA000284694E74146D1E7D0467BE76444023890
:103EB00047E7023B65442FE7084606E73146E9E657
:103EC000704700BF10B50C46416986B001F26C71B5
:103ED000036982690491016803EB4303039141681C
:103EE00002EB4202029181680191C1682046009173
:103EF00004490B4404490A440449FDF75DFB20468C
:103F000006B010BDF6760A08E1760A08C1760A08FE
:103F1000002301461A46184602F020B8002101F09D
:103F2000D7BC0A22002101F05BBD00002DE9F04161
:103F30000C46804602F024FC21460546404602F02D
:103F400023FC43690446990703F26C7705D1642288
:103F500097FBF2F302FB137373BB4FF4C87397FB29
:103F6000F3F603FB1676B6FA86F35B093022664E4B
:103F700002FB036601F05EFE01F068FE634B1B6806
:103F80004BB36B68BB4219D1D8E90023D5E90801CE
:103F90002F68DFB9824273EB010123DAD5E9120100
:103FA000824273EB0107B4BF0127002782428B4195
:103FB000276219DBAB6A18E00123D7E7384601F026
:103FC00095FD0028E0D14FF0FF3304E0824273EB0F
:103FD000010102DA00232362ECE7D5E912018242F3
:103FE0008B41F7DA012323622B6D4FF4616293FB5F
:103FF000F2F53C2002FB153393FBF0F200FB12308C
:1040000061682368891AA2681B1A521B3B2B236024
:104010006160A26034DD013161603C3B2360636814
:104020003B2B33DD0132A2603C3B6360A368172B5E
:1040300032DDE269183B0132E261A269A36001321C
:10404000062AC8BF0022A261E26823690132E26049
:1040500056F823108A420EDD0B2BA2EB0102E26020
:1040600003F1010205BF002263692261013302BF2F
:1040700022616361E26101F0E3FD2046BDE8F08169
:10408000002BCCDA013961603C33C7E7002BCDDA75
:10409000013AA2603C33C8E7002BECDAE26918333E
:1040A000013AE261A269A360013A48BF0622A26117
:1040B000E268013AE260002ADDD12369013B05D4C0
:1040C0002361236956F82330E360D4E70B2323618F
:1040D00063695A1E03F26B7362619A0705D164210A
:1040E00093FBF1F201FB123262B94FF4C87293FBF9
:1040F000F2F102FB1133B3FA83F35B0903F5B673F4
:10410000E361DEE70123F9E71C770A08E8040020F1
:104110000A44914200F1FF3300D1704710B511F805
:10412000014B914203F8014FF9D110BD03460244FF
:10413000934200D1704703F8011BF9E738B5104BE3
:1041400004461D68AB6BB3B91820FDF71DFA024693
:10415000A86320B942210B4B0B48FDF765FA0B49C8
:104160000B4BC0E900130B4B002183600B238381B1
:104170000120C2E904010022AB6B1C615A6138BD09
:104180000C0000207C770A0893770A080E33CDAB29
:1041900034126DE6ECDE050010F8012B11F8013B3E
:1041A000012A28BF9A42F7D0D01A7047034611F867
:1041B000012B03F8012B002AF9D17047024B01466D
:1041C000186800F003B800BF0C00002070B504466A
:1041D00008460D4600F044FD461C31462046FDF7DA
:1041E00013FA044618B132462946FFF791FF2046DC
:1041F00070BD0000426940F26C73002AA8BF6FF0E6
:1042000063031344920705D1642193FBF1F201FB90
:104210001232DAB94FF4C87293FBF2F102FB113398
:10422000B3FA83F35B09D0E90602400000EB021009
:10423000184441F2A26398423AD021DC01281ADCEA
:104240000028B4BF00204FF0FF3070470123EAE799
:10425000172813D8DFE800F00C0C0C0C12120C0C11
:10426000121212121212121212120C0C12120C0C46
:104270004FF0FF3070470A381728E9D900207047FF
:1042800041F2B463984206DC41F2B1639842D4BF74
:10429000002001207047A0F5B65002381528EDD84F
:1042A0000123834003481840003818BF012070479D
:1042B000012070471F002A002DE9F04F1E46002301
:1042C00007460D461C468FB002931378002B00F072
:1042D000B584252B1FD192F801B0BBF1300F24D04B
:1042E000BBF12B0F21D04FF0000B02F1010898F821
:1042F0000020313A082A1BD840460A2206A901F0BC
:10430000EBFB8146DDF8188098F80020452A12D191
:1043100008F1010811E0691EA14202D8002400F052
:1043200090BC3B5501320134CFE702F10208DEE7D1
:104330004FF00009E8E74F2AEAD098F80000A0F112
:104340002502552AEAD801A353F822F0314C0A0875
:104350001D430A081D430A081D430A081D430A0895
:104360001D430A081D430A081D430A081D430A0885
:104370001D430A081D430A081D430A081D430A0875
:104380001D430A081D430A081D430A081D430A0865
:104390001D430A081D430A081D430A081D430A0855
:1043A0001D430A081D430A081D430A081D430A0845
:1043B0001D430A081D430A081D430A08E1440A0870
:1043C00039450A08A7450A0845460A081D430A0850
:1043D0008F460A087D470A0853480A0861480A08B8
:1043E0001D430A081D430A081D430A0891480A088C
:1043F0001D430A081D430A08A5480A081D430A0868
:10440000F7480A08094A0A08194A0A08414A0A08E4
:10441000514A0A08EB4A0A089F450A08174B0A083E
:10442000DF4B0A081D430A081D430A081D430A08FA
:104430001D430A081D430A081D430A08A5440A082B
:104440000F450A0865450A0821460A0821460A0858
:104450001D430A08E1460A080F450A081D430A08D9
:1044600083480A0853480A0861480A088B480A0822
:1044700095480A081D430A08A5480A081D430A086A
:104480008F450A0809490A080D4A0A08274A0A08F6
:104490001D430A08DD4A0A0897450A08FB4A0A082C
:1044A000694B0A08B369A94A183352F82390484661
:1044B00000F0D6FB09F1FF3920446B1EA04207D162
:1044C00098F80030002B00F0B98308F10102FCE6F7
:1044D000A3427FF623AF19F8012F3A550134EDE7D7
:1044E000B2699A4B03EB8203D3F87C90484600F004
:1044F000B7FB09F1FF3920446B1EA042E0D0A34274
:104500007FF60CAF19F8012F3A550134F5E78F4BC0
:10451000326953F82290484600F0A2FB09F1FF39B6
:1045200020446B1EA042CBD0A3427FF6F7AE19F811
:10453000012F3A550134F5E73369844A0C3352F8B8
:104540002390484600F08CFB09F1FF3920446B1E94
:10455000A042B5D0A3427FF6E1AE19F8012F3A553B
:104560000134F5E7794BD3F8A090484600F078FB8A
:1045700099F80030002BA3D033464A46291B38193E
:10458000FFF79AFE00287FF7C9AE044498E76F4B07
:10459000D3F8E490E9E76D4BD3F89C90E5E76B4BDB
:1045A000D3F89890E1E76A49D6F814A08A45ACBFE1
:1045B00000210121BAF1000F11DB64209AFBF0F019
:1045C0001330BBF1000F14D0632827DD614B624A22
:1045D000BBF12B0F18BF1A46DFF880C10CE00AF2BE
:1045E0006C70039101F01EFD6422039990FBF2F0C0
:1045F000E7E7584ADFF868C1B9F1020F2CBFC1EBF9
:104600000901C1F10201574B0091514901908A45BE
:10461000A8BF13466246291B381929E04D4ADBE73B
:104620005149524AF368642808BF0A46291B3819C1
:10463000FCF7DAFF0028FFF671AE0444A5423FF60E
:104640003FAF6BE6706933690028F26807EB040935
:10465000A5EB040A03F1010B0DDB642190FBF1FCD7
:1046600001FB1C00CDE900205B4651464846404A0C
:10467000FCF7BAFFDEE700F26C70039201F0D2FCA7
:10468000642190FBF1FC039A0CFB1100EAE7252260
:104690008DF81820BBF1000F11D0B9F1060F38BF0B
:1046A0004FF00609B9F106038DF819B00CD10DF1E0
:1046B0001A003049FFF77AFD334606AA5EE74FF04D
:1046C0002B0B4FF00A09EDE71E212B4A0DF11A00C2
:1046D000FCF78AFF0028EADD0DF11A031844E8E729
:1046E0003046FFF787FD81467069002811DB64239F
:1046F00090FBF3F203FB12006422814499FBF2F376
:1047000002FB13999144B9FBF2F302FB1393164A8F
:104710008CE700F26C7001F085FC642390FBF3F2EF
:10472000B9F1000F02FB130007DA7269A3F2CF732D
:104730009A42B8BF4FF00109DEE7DDD07269044B41
:104740009A42B8BF4FF0FF39D6E700BFF4790A08A4
:1047500094F8FFFFE0760A081F780A0817780A081D
:1047600010780A0821780A0831780A0823780A089C
:1047700027780A083A780A0836780A087169BA4A26
:1047800030469142ACBF00230123CDE90331FFF74E
:1047900031FD0499824600292CDB642291FBF2F260
:1047A0001332706900282FDB4FF0640C90FBFCFE85
:1047B0000CFB1E00BAF1000F35DA7169AB4B994260
:1047C0003BDB8244BAF1FF3F3CD14FF0630A013A30
:1047D0006420039B00FB02AA002B00F0A8812D227D
:1047E0008DF81820B9F1000F01D009F1FF390DF152
:1047F0001902A7E101F26C70049101F013FC64222C
:10480000049990FBF2F2CCE700F26C70CDE904124F
:1048100001F008FCDDE904124FF0640C90FBFCFE93
:104820000EFB1C00C6E7CCD08F4B9942B6BF0123CC
:1048300000234FF0FF3A0393C3E74FF0010ACDF88E
:104840000CA0BEE7BAF1640F04BF4FF0000A0132BA
:10485000BEE78749874AB3686B2808BF0A46E5E682
:10486000B36863B10C2B04D00C2193FBF1F201FB74
:10487000123380497E4A492808BF0A46D6E60C23EF
:10488000F7E7F3697C4A0133D0E6336901333EE749
:1048900073683CE76B1E9C42BFF440AD0A233B5556
:1048A00001340DE6B3680B2BD4BF00220122734BF9
:1048B00003EB8203D3F8A490484600F0D1F909F144
:1048C000FF32204405F1FF3CA0423FF4F9ADA4457E
:1048D0007FF624AD98F8001012F8013F502907D157
:1048E0006749C95C01F00301012908BF2033DBB22D
:1048F0003B550134E8E77368624A0093B368291BAB
:104900003819FCF771FE95E6336A002B79DB01F06C
:1049100091F9029B0BB901F099F901F031FF336A6B
:10492000002BD4BF00220122282302FB0333C358EB
:10493000C3F1000901F084F9012302937269291B74
:10494000B2F145034FEAE27C6CF1000CBCF1000FC0
:1049500007EB040002DA03334CF1000C4FF0640E55
:1049600002F1FF3A9AFBFEFE9B0843EA8C73B3EB1D
:104970000E034FEAAC0C6CEBEE7C4FF4C87E02F2F7
:104980002B1A9AFBFEFE13EB0E034CEBEE7E40F26D
:104990006D1C463A0CFB02F24FF0180C9B184EEBC4
:1049A000E272D6F81CE013EB0E0342EBEE72A3FBAF
:1049B0000C3E0CFB02E24FF03C0CD6F808E013EB87
:1049C0000E0342EBEE7EA3FB0C320CFB0E22D6F85C
:1049D00004E013EB0E0342EBEE72A3FB0C3E0CFB68
:1049E00002E2D6F800E013EB0E0342EBEE72B3EBFB
:1049F000090362EBE972CDE90032234AFCF7F4FDCA
:104A000018E64FF0000999E7336880E66B1E9C4278
:104A1000BFF484AC092342E733681C4A01937368EE
:104A20000093B368F7E56B1E9C42BFF477ACB369A3
:104A3000621C1BB937233B55144641E53033FAE776
:104A4000F369B26907339B1A072293FBF2F35EE620
:104A50003046FFF7CFFBB269D2B1013A00283BDC08
:104A6000F36917D10A33EEE794F8FFFF95F8FFFFDB
:104A700023780A0831780A0846780A08F4790A087F
:104A80002D7B0A0855780A084B780A0850780A08DE
:104A90000622E3E77169D21A002940F26B73A8BFBE
:104AA0006FF064030B44990705D1642093FBF0F188
:104AB00000FB113171B94FF4C87193FBF1F001FBA8
:104AC0001033B3FA83F35B09D31A052BB4BF352334
:104AD00034231CE60123F7E7012318E66B1E9C42F2
:104AE000BFF41CACB3693033D9E6B2691AB1013AEC
:104AF000F3690733A7E70622FAE77069002805DBA8
:104B0000642390FBF3F202FB130300E600F26C70E7
:104B100001F088FAF4E772694C498A4205DA2D20DF
:104B2000A1EB020A8DF818005CE602F26C7ABBF188
:104B30002B0F06D142F20F72924502D98DF818B0B0
:104B400050E606AA25211170BBF1000F08D1501CB8
:104B50003F49FFF72BFB4B46CDF800A006AACEE657
:104B60003023901C5370F3E7336A002BFFF6A8AC98
:104B700001F060F8029B0BB901F068F801F000FE4B
:104B8000336A07EB040A002BD4BF0022012228233A
:104B900002FB0333C358A5EB040BC3F1000901F07A
:104BA0004FF83C2399FBF3F001F09CFE3C2390FB73
:104BB000F3F202FB13004FF46163009099FBF3F3EF
:104BC00059465046234AFCF70FFD0028FFF6A6ABD6
:104BD0000444A5427FF6A2AB0123029370E4336A3A
:104BE000002BFFF66DAC01F025F8029B0BB901F02C
:104BF0002DF8336A184A002BD4BF0023012352F842
:104C00002390484600F02CF809F1FF3920446B1E30
:104C1000A04202D101F014F8DEE7A34204D919F84A
:104C2000012F3A550134F3E701F00AF8FFF776BB9C
:104C30006B1E9C42BFF472AB252330E60DB10023FE
:104C40003B5520460FB0BDE8F08F00BF94F8FFFF42
:104C500042780A085F780A0870000020FFF72CBB32
:104C6000034613F8012B002AFBD1181A01387047AC
:104C7000034610B572B10139841813F8010B11F80D
:104C8000012F904201D1A34201D1801A10BD00280A
:104C9000F3D1FAE71046F9E7034610B5013932B10E
:104CA00011F8014F013A03F8014B002CF7D1002114
:104CB0001A44934200D110BD03F8011BF9E72DE916
:104CC000F0410F46904602F097F904460D46B8F1C0
:104CD000000F11D0C7F30A53C3F16B03002B0BDD98
:104CE00000241B0503F17F5505F5401522462B4690
:104CF000FEF790FA04460D4620462946BDE8F081AD
:104D00002DE9F04F9B4600239FB01A939E4B82469D
:104D10001F680E4638461592FFF7A2FF4FF00008B5
:104D200004464FF000091996199B1A782B2A4CD08B
:104D30003AD80D2A33D8082A33D8002A3DD0002388
:104D40000A93199D2B78302B40F0AA806B7803F0E2
:104D5000DF03582B66D10A9B504601931AAB009390
:104D60008A4ACDF808B01BAB19A901F0C7F910F0B9
:104D70000706044605D0062E29D1002301351995D2
:104D80000A93159B002B40F08A850A9BD3B14246BB
:104D900009F10043104619461FB0BDE8F08F202AE4
:104DA000CDD101331993BFE72D2AC8D101220A9230
:104DB0005A1C19925B78002BC3D1159B1996002BB6
:104DC00040F06B8542464B46E4E70022EFE71A9A33
:104DD0003AB135211CA802F013FA50461A9901F095
:104DE000DBFD013E042E06D8DFE806F00A031417A7
:104DF0000A00DDE91C892107C3D549F00049C0E755
:104E00001B9ADDE91C8302F2334223F4801343EA48
:104E10000259F0E7DFF87891EDE76FF000494FF0C5
:104E2000FF38E8E7199B5A1C19925B78302BF9D0B0
:104E3000002BA6D001230793199B0A220893002375
:104E40009B46CDE9053319980578A5F13003D9B211
:104E5000092927D922463946FFF70AFF002833D00F
:104E600000202A465C4603460490652A01D0452A64
:104E700014D11CB9079A02439FD00024199E721CBA
:104E8000199272782B2A79D02D2A00F0838000277E
:104E9000A2F13001092940F28380199600259FE094
:104EA0000023C8E7BBF1080FD5BF0699059902FB9F
:104EB000013302FB013300F10100D4BF06930593D7
:104EC0000BF1010B1990BEE7199B1A1919921A5D83
:104ED000BBF1000F36D05C460490A2F13003092BE1
:104EE00012D90123C1E7199B01305A1C19925A7833
:104EF000302AF8D0A2F13103082B00F2D5840490B7
:104F000000200446199B0893303A00F1010313D0A6
:104F1000049905191944049123460A21AB4213D17F
:104F20002318082B04F1010404441BDC0A2306990E
:104F300003FB012306930023199A1846511C19916B
:104F40005278CAE75846D3E7082B04DC069F4F4344
:104F500006970133E2E75F1C102FDEBF059F4F432A
:104F60000597F6E7102CDFBF0A23059903FB012301
:104F70000593E0E70023049301237BE70027B21C9D
:104F80001992B27884E700BFC47C0A0874780A08D2
:104F90000000F07F0127F2E7199A511C199152780D
:104FA000302AF9D0A2F1310108293FF677AF4FF04E
:104FB0000A0EA2F1300C199A0992199A511C1991F2
:104FC0005278A2F13005092D35D9099D491B0829D0
:104FD00044F61F6502DC6545A8BF654607B16D4212
:104FE000002C4CD1079901437FF4CBAE002B7FF40A
:104FF000E4AE692A26D023DC492A23D04E2A7FF446
:10500000DCAE9D4919A801F0C7FA00283FF4D5AEDF
:10501000199B1B78282B2CD198491CAA19A801F0A0
:10502000CFFA052825D11D9BDDF8708043F0FF499C
:1050300049F4E009A5E60EFB0C2CACF1300CBCE702
:105040006E2ADCE78E4919A801F0A6FA00283FF481
:10505000B4AE199B8B49013B19A8199301F09CFA36
:1050600010B9199B013319934FF00008DFF818921B
:1050700087E68648FDF70CFF8046894681E6049B5B
:10508000BBF1000F08BFA346EB1A102C069826466A
:105090000793A8BF1026FEF743F8092C80468946DF
:1050A00013DD7B4B03EBC60353E91223FEF7B2F883
:1050B000804605988946FEF733F802460B4640467F
:1050C0004946FDF7F1FE804689460F2C36DC079BEA
:1050D000002B3FF456AE22DD162B09DC6C4942460C
:1050E00001EBC3014B46D1E90001FEF793F8C3E79A
:1050F000079AC4F12503934220DB654DC4F10F04E8
:1051000005EBC4014246D1E900014B46FEF782F8A7
:10511000079B1C1B05EBC405D5E90023E5E7079BAE
:1051200016330BDB049B40465D1B594B494603EB92
:10513000C505D5E90023FEF797F99DE7079BA61B58
:105140001E44002E74DD16F00F030AD0504942466B
:1051500001EBC301D1E900014B46FEF75BF8804645
:10516000894636F00F0652D0B6F59A7F27DD4FF00C
:10517000000BCDF810B0CDF820B0CDF818B0222338
:105180004FF00008DFF80091CAF80030089B002BB0
:105190003FF4F7AD50461A9901F0FEFB50460699D0
:1051A00001F0FAFB5046049901F0F6FB50460899CD
:1051B00001F0F2FB5946504601F0EEFBE1E5354BBC
:1051C00040460593002349461F463611012E21DC37
:1051D0000BB1804689462F4BA9F1547903EBC707E1
:1051E0004246D7E900014B46FEF714F8264B0A4623
:1051F0000B40294980468B42B9D8A1F580118B42DA
:1052000086BF4FF0FF38DFF8949002F15479002305
:1052100005937FE0F20705D5059BD3E90023FDF751
:10522000F9FF0123059A0137083276100592CDE780
:10523000EDD0764216F00F020AD0154B404603EB34
:10524000C2034946D3E90023FEF70EF9804689469A
:105250003611DCD01F2E23DD4FF0000BCDF810B03F
:10526000CDF820B0CDF818B022234FF000084FF051
:105270000009CAF8003089E7C9780A0888780A085E
:105280006B780A086E780A080000F07FE0760A085A
:10529000807D0A08587D0A080000A07CFFFFEF7F90
:1052A00016F0100318BF6A234046059349460023B1
:1052B000B04FF20704D5D7E90023FDF7ABFF012378
:1052C000761007F10807F4D10BB180468946059B9B
:1052D000C3B1C9F30A52C2F16B03002B494611DD79
:1052E0001F2B40F32781342BD8BF4FF0FF334FF0F3
:1052F0000008CFBF4FF05C79C2F14B0203FA02F213
:1053000002EA01090022002340464946FEF7EAF975
:105310000028A1D1069B5A4600935046234608997F
:1053200001F0A2FB089000283FF421AF049B4FF04E
:10533000000B5D1B079BCDF810B0002BB4BF2B46B4
:1053400000230E93079B23EAE3731493089B5046B4
:10535000596801F0E1FA069000283FF410AF089B6D
:105360000C301A6903F10C0102329200FEF7D0FEF4
:105370001CAB01931BAB009342464B465046CDE914
:105380000C8901F0B3FE1A9000283FF4F8AE012119
:10539000504601F001FC0346049000283FF4EFAEB4
:1053A0001B9D1C9A002DABBF0E9B149BEE185C1B23
:1053B000059BA8BF149CA5EB030515446E4B05F196
:1053C000FF35B8BF0E9E9D42C2F1360280F2C48006
:1053D0005B1B1F2B4FF00107A2EB030200F3B18010
:1053E000002507FA03F30F93B718059BBE42144438
:1053F0001C443346A8BF3B46A342A8BF2346002B0C
:10540000C2BFFF1AE41AF61A0E9B002B17DD1A46CC
:105410005046049901F07EFC049000283FF4AFAEA2
:1054200001461A9A504601F0CDFB099000283FF43E
:10543000A6AE50461A9901F0AFFA099B1A93002FB5
:1054400000F38E80079B002B08DD5046149A0699C6
:1054500001F060FC069000283FF491AE002C08DDBE
:1054600022465046069901F0AFFC069000283FF412
:1054700086AE002E08DD32465046049901F0A4FCA9
:10548000049000283FF47BAE5046069A1A9901F02A
:1054900027FD834600283FF472AE0024C3680499B8
:1054A000C4600B9301F000FDA0426BDA0B9B53EA42
:1054B000080340F09180C9F31303002B40F08C8067
:1054C00029F000431B0D1B05B3F1D66F40F2848019
:1054D000DBF814301BB9DBF81030012B7CDD5946AA
:1054E0000122504601F070FC0499834601F0DCFC77
:1054F000002871DD05994B46204A002900F08C8078
:1055000002EA0901B1F1D66F00F38680B1F15C7F48
:105510007FF7AAAE40464946194B0022FDF77AFEB6
:105520000B46034308BF22238046894608BFCAF8BA
:1055300000302FE64FF0FF3202FA03F303EA0808C7
:10554000E0E6C5F17F4505F57F0505F57B45E235CC
:1055500007FA05F50F9747E7012300250F9343E767
:105560003A4650461A9901F02FFC1A9000287FF411
:1055700069AF04E6A0780A0802FCFFFF0000F07F94
:1055800000005039CDF8249065D10B9AC9F313036C
:105590005AB3994A93422BD1059B414603B34A46DD
:1055A000964B1340B3F1D46F4FF0FF321BD81B0D55
:1055B000C3F16B0302FA03F3994219D1904B099A94
:1055C0009A4202D101313FF4DAAD4FF000088B4B23
:1055D000099A1A4002F58019059B002B9AD1D9E54A
:1055E0004FF0FF33E8E71346E6E753EA080381D0BC
:1055F000E5B1099B1D42EFD00B9B40464946059AF9
:10560000C3B1FFF75CFB02460B46DDE90C01FDF779
:105610004BFC80468946DFE71340A3F580136FEA11
:1056200013594FF0FF386FEA0959D5E70F9B13EA7A
:10563000080FE0E7FFF743FB02460B46DDE90C01EC
:10564000FDF730FC0022002380468946FEF74AF829
:105650000028C1D008E65846049901F0A3FD0022B5
:105660004FF0804306460F46FEF750F8002870D0F2
:105670000B9B002B42D00026624F624D099B23F00A
:1056800000431B0D1B050F930F9A5F4B9A4240F08E
:10569000C380099B4046A3F15479494601F0ACFC14
:1056A00002460B4630463946FDF7B4FD42464B46AE
:1056B000FDF7FAFB0B465149544A19409142804686
:1056C0005DD90D9A4E4B9A4203D10C9B01333FF4A6
:1056D00056AD4FF0FF38DFF8289150461A9901F087
:1056E0005BF95046069901F057F95046049901F0CC
:1056F00053F95946504601F04FF927E6B8F1000F2B
:1057000019D1099BC3F31303E3B90022304639468C
:105710003C4BFDF7F1FFC8B90022304639463C4BFF
:10572000FDF778FD04460D4605F1004316941793E6
:10573000DDE91667A2E7B8F1010F03D1099B002B41
:105740003FF492AD00260024324F96E70B9C304D7B
:10575000EAE72F4B002230463946FDF75BFD0B9BF5
:1057600004460D4633B901F1004310901193DDE971
:10577000106783E702460B46CDE91023F7E703F1F4
:105780005479059B002BA8D129F000430F9A1B0DDB
:105790001B059A42A1D12046294601F0EDFDFDF7F7
:1057A0000BFD02460B4620462946FDF77BFB0B9A74
:1057B000C9F3130343EA0803134304460D4666D0B6
:1057C00009A3D3E90023FDF797FF00287FF4E2AC9B
:1057D00007A3D3E9002320462946FDF7ABFF0028A5
:1057E0003FF47BAFD6E400BF9535A094FFFFDF3FC9
:1057F00035E5AF350000E03FFFFF0F000000F07F10
:10580000FFFFEF7F0000F03F0000E07FFFFF9F7C85
:105810000000E03F0000F0BF059B13B30F9BB3F106
:10582000D46F1ED826A3D3E9002320462946FDF7CE
:105830006DFF90B129462046FDF7AEFF012838BF25
:105840000120FDF76DFC0B9B04460D46D3B901F119
:10585000004312901393DDE912670F9A07F1D663A4
:105860009F1ADDE90C0101F0C7FB02460B463046EA
:105870003946FDF7CFFCDDE90C23FDF715FB80462B
:1058800089467EE702460B46CDE91223E3E70EA3E5
:10589000D3E90023FDF730FFA1E700230A93199B0A
:1058A000159A1360FFF771BA652A3FF463AB452A76
:1058B0003FF460AB0123FFF795BB00BFAFF300805F
:1058C0000000C0FFFFFFDF419535A094FFFFCF3FF1
:1058D0000A4601460248034B0068FFF711BA00BFB1
:1058E0000C000020DC000020012B2DE9F047804651
:1058F00001D0242B06D9FBF78FFE1623036000206E
:10590000BDE8F0870D46354F284615F8014BE65D9A
:1059100016F00806F8D12D2C2FD101262C78851CE5
:10592000002B57D0102B09D1302C07D1287800F04C
:10593000DF00582849D110236C780235002706F182
:10594000004E0EF1FF3EBEFBF3F9384603FB19EAA9
:10595000A4F1300CBCF1090F14D86446A34222DD37
:10596000002F1DDB81451BD301D1A24518DB012788
:1059700000FB034015F8014BEAE72B2C04BF2C7801
:10598000851CCDE7A4F1410CBCF1190F01D8373CBF
:10599000E4E7A4F1610CBCF1190F04D8573CDDE732
:1059A0004FF0FF37E6E7002F07DA22237046C8F8EA
:1059B0000030002AA4D0691E05E006B14042002A4A
:1059C0009ED0002FF7D111609AE73024002BB5D17B
:1059D0000823B3E7302CA9D00A23AFE72D7B0A08B0
:1059E00013460A46014602480068FFF77DBF00BF24
:1059F0000C0000202DE9F04386460D46354F284621
:105A000015F8014BE65D16F00806F8D12D2C2FD1C4
:105A100001262C78851C002B57D0102B09D1302C57
:105A200007D1287800F0DF00582849D110236C787E
:105A300002354FF0FF38B8FBF3F8002703FB08F9F5
:105A400038466FEA0909A4F1300CBCF1090F14D8EB
:105A50006446A34222DD002F1DDB80451BD301D10C
:105A6000A14518DB012700FB034015F8014BEAE7CD
:105A70002B2C04BF2C78851CCDE7A4F1410CBCF184
:105A8000190F01D8373CE4E7A4F1610CBCF1190F00
:105A900004D8573CDDE74FF0FF37E6E7002F07DA81
:105AA00022234FF0FF30CEF8003032B9BDE8F0834A
:105AB00006B14042002AF9D007B1691E1160F5E72E
:105AC0003024002BB5D10823B3E7302CA9D00A230A
:105AD000AFE700BF2D7B0A0813460A46014602487D
